:100000000C9414050C945B050C945B050C945B0537
:100010000C945B050C945B050C945B050C945B05E0
:100020000C945B050C945B050C94D82A0C94AA2BB9
:100030000C9461220C945B050C945B050C945B059D
:100040000C945B050C945B050C945B050C945B05B0
:100050000C94E9060C94C9220C945B050C945B0586
:100060000C945B050C945B050C945B050C945B0590
:100070000C945B050C945B050C945B050C945B0580
:100080000C945B050C945B050C945B050C945B0570
:100090000C945B050C945B050C945B050C945B0560
:1000A0000C945B050C945B050C945B05EA07EC076C
:1000B000F707EE07F007F207F407F607F907FB0763
:1000C000FD070808FF0701080308050807080A08D4
:1000D000C518C518F718F7183719881A881A881A12
:1000E0005519881AF819F819881A671A051A051A7D
:1000F000051A051A051A051A051A051A051A051A08
:10010000051A051A051A051A051A051A141A221ACB
:10011000291A301A3A1A151B151B271B271B1E1BE1
:10012000271B271B271B151B151B231B271B271BE7
:10013000231B172C3E2C362D3E2C362D8A2CAD2C15
:10014000362D042D132D29001E001F002000210034
:100150002200230024002500260027002D002E0069
:1001600031002B0014001A000800150017001C00B5
:1001700018000C00120013002F0030002A00E000CD
:1001800004001600070009000A000B000D000E0015
:100190000F003300340028000000E1001D001B00A8
:1001A0000600190005001100100036003700380065
:1001B000E500015100000100E300E2000000000042
:1001C00000002C00000000000000E6004C000100D0
:1001D000350029003A003B003C003D003E003F0056
:1001E000400041004200430044004500010001007E
:1001F000C25CC35CC55CC65CC75CC85CC95CCA5CED
:1002000001005200A900AA00010001000100010044
:100210000100010001000100010001005000510037
:100220004F0001000000010001000100BD5CBF5C47
:10023000BE5CC05C01000100010001000100010082
:1002400000000100010001000000000000000100AA
:100250000000000000000100010001000100444511
:100260004255473A20656E61626C65642E0A000053
:10027000000000000000000000000101020304056E
:1002800006080A0C0F1114181C2024292E33393F9C
:10029000464C535B626A7179818A929AA2AAB2B97A
:1002A000C1C8CFD5DCE1E7EBF0F4F7FAFCFDFEFFC7
:1002B000FEFDFCFAF7F4F0EBE7E1DCD5CFC8C1B9FD
:1002C000B2AAA29A928A8179716A625B534C463FC4
:1002D00039332E2924201C1814110F0C0A08060586
:1002E0000403020101000000000000000000000AF9
:1002F000002530313662003A200025303258000A9D
:10030000722F632030313233343536373839414239
:10031000434445460A007267626C696768742074DA
:10032000696D65722064697361626C652E0A007282
:1003300067626C696768742074696D657220656EA8
:1003400061626C65642E0A007267626C696768742A
:100350002073657420687376205B4E4F454550527C
:100360004F4D5D3A2025752C25752C25750A007298
:1003700067626C696768742073657420687376209F
:100380005B454550524F4D5D3A2025752C25752C07
:1003900025750A007267626C69676874207261690A
:1003A0006E626F7720736574206873763A202564D7
:1003B0002C25642C25642C25750A007267626C69F3
:1003C0006768742064697361626C65205B454550A1
:1003D000524F4D5D3A207267626C696768745F6363
:1003E0006F6E6669672E656E61626C65203D2025C3
:1003F000750A007267626C6967687420656E616275
:100400006C65205B454550524F4D5D3A20726762E6
:100410006C696768745F636F6E6669672E656E618D
:10042000626C65203D2025750A007267626C696701
:10043000687420746F67676C65205B454550524F48
:100440004D5D3A207267626C696768745F636F6EB6
:100450006669672E656E61626C65203D2025750AB0
:10046000007267626C69676874206D6F6465205BF9
:100470004E4F454550524F4D5D3A2025750A00724A
:1004800067626C69676874206D6F6465205B4545C1
:1004900050524F4D5D3A2025750A007267626C69B3
:1004A0006768745F696E6974207267626C696768F7
:1004B000745F636F6E6669672E6D6F6465203D20A3
:1004C000302E2057726974652064656661756C749E
:1004D0002076616C75657320746F20454550524FCE
:1004E0004D2E0A007267626C696768745F696E6995
:1004F00074206565636F6E666967206973206E6F2F
:100500007420656E61626C65642E0A007267626CAD
:10051000696768745F696E697420737461727421AD
:100520000A007267626C696768745F696E6974203B
:1005300063616C6C65642E0A007267626C6967683F
:10054000745F636F6E6669672E7370656564203DC6
:100550002025640A007267626C696768745F636F64
:100560006E6669672E76616C203D2025640A0072F4
:1005700067626C696768745F636F6E6669672E7324
:100580006174203D2025640A007267626C696768A7
:10059000745F636F6E6669672E687565203D202500
:1005A000640A007267686C696768745F636F6E667F
:1005B00069672E6D6F6465203D2025640A007267AF
:1005C000626C696768745F636F6E6669672E656EDB
:1005D00061626C65203D2025640A007267626C6967
:1005E0006768745F636F6E666967206570726F6DB0
:1005F0000A0000047F3F1F643214643214783C1EEA
:100600001E140A052223252628292A2C2D2F3032B4
:10061000333536383A3B3D3E4042434547494A4CE4
:100620004E5051535557595A5C5E60626466686912
:100630006B6D6F71737577797B7D7F81838587891A
:100640008A8C8E90929496989A9C9E9FA1A3A5A71F
:10065000A8AAACAEAFB1B3B4B6B8B9BBBCBEBFC14B
:10066000C2C3C5C6C7C9CACBCCCDCED0D1D2D2D3D6
:10067000D4D5D6D7D7D8D9D9DADADBDBDBDCDCDCEA
:10068000DCDCDDDDDDDDDCDCDCDCDCDBDBDBDADAAD
:10069000D9D9D8D7D7D6D5D4D3D2D2D1D0CECDCC24
:1006A000CBCAC9C7C6C5C3C2C1BFBEBCBBB9B8B639
:1006B000B4B3B1AFAEACAAA8A7A5A3A19F9E9C9AC4
:1006C00098969492908E8C8A89878583817F7D7B92
:1006D00079777573716F6D6B6968666462605E5C73
:1006E0005A5957555351504E4C4A49474543424039
:1006F0003E3D3B3A3836353332302F2D2C2A2928CF
:1007000026252322FFAA7F5540000000000000009C
:1007100000000001010101010101010102020202C8
:100720000202020203030303030303040404040498
:100730000505050505060606060607070707080856
:1007400008080909090A0A0A0B0B0B0C0C0C0D0D01
:100750000D0E0E0E0F0F1010101111121213131494
:1007600014151516161717181819191A1A1B1C1C08
:100770001D1D1E1F1F20212122232324252526275E
:100780002828292A2B2C2C2D2E2F3031313233348E
:1007900035363738393A3B3C3D3E3F404142434491
:1007A00045464748494B4C4D4E4F50525354555770
:1007B00058595A5C5D5E606163646567686A6B6C1A
:1007C0006E6F7172747677797A7C7D7F8182848690
:1007D00087898B8D8E9092949597999B9D9FA1A2CE
:1007E000A4A6A8AAACAEB0B2B4B6B9BBBDBFC1C3D3
:1007F000C5C8CACCCED0D3D5D7DADCDEE1E3E6E893
:10080000EAEDEFF2F4F7F9FCFF0A00253032582048
:10081000006B6579626F6172645F7265706F72748C
:100820003A20000A0025303258006B6579626F610A
:1008300072645F7365745F6C65643A2000646F6E08
:10084000652E0A00626F6F746D6167696320736360
:10085000616E3A202E2E2E20006261636B6C6967F8
:10086000687420737465703A2025750A00626163AC
:100870006B6C696768742064697361626C650A00F7
:100880006261636B6C6967687420656E61626C6538
:100890000A006261636B6C6967687420746F6767D4
:1008A0006C653A2025750A006261636B6C69676844
:1008B000742064656372656173653A2025750A006A
:1008C0006261636B6C6967687420696E63726561ED
:1008D00073653A2025750A005B735D004B6579628C
:1008E0006F6172642073746172742E0A005B575DCD
:1008F000005B535D005B525D005B445D005B435DEC
:10090000000403300000000C036B0062006400363A
:100910000078000000080359006F00750000000413
:1009200003090409025B00030100A0FA09040000A6
:100930000103010100092111010001224000070506
:10094000810308000A0904010001030000000921D5
:10095000110100012236000705820320000A090464
:1009600002000203000000092111010001222200FF
:10097000070583032000010705030320000112017E
:10098000100100000008EDFE00000100010203015B
:100990000631FF0974A1010975150026FF00952095
:1009A000750881020976150026FF009520750891CB
:1009B00002C005010980A10185031601002603007C
:1009C0001A81002A8300751095018100C0050C0969
:1009D00001A1018504160100269C021A01002A9C2F
:1009E00002751095018100C005010906A1010507E6
:1009F00019E029E715002501950875018102950187
:100A000075088101050819012905950575019102EF
:100A10009501750391010507190029FF150026FFAF
:100A200000950675088100C011241FBECFEFDAE0E3
:100A3000DEBFCDBF04B603FE27C080917002909147
:100A40007102A0917202B09173028730904BA7405F
:100A5000B04BD1F410927002109271021092720297
:100A60001092730214BE84B7877F84BF0FB6F894C8
:100A7000A89580916000886180936000109260006A
:100A80000FBEE0E0F8E3099511E0A0E0B1E0ECE88A
:100A9000FCE502C005900D92A436B107D9F722E01B
:100AA000A4E6B1E001C01D92A037B207E1F70E94B1
:100AB000F7270C94442E0C940000FF93EF93E091E1
:100AC0006401F0916501309709F00995EF91FF916C
:100AD0000895FC018591803011F0EFDFFBCF089580
:100AE000FF27E0E230E247FF0CC0419597FF09C0C5
:100AF000EDE26095709580959095611D711D811D49
:100B0000911D27FF02C0219530E350E2AA27660F0E
:100B1000771F881F991FAA1FA41710F0A41B6395A5
:100B20005A95A9F7AA3008F0A95FA05DAF93F39595
:100B3000611571058105910541F7ED3211F4EF93CF
:100B4000F395F21718F43F93F395FBCF8F91B5DF30
:100B5000FA95E1F70895E991F9918591803021F0B6
:100B6000853219F0AADFF9CF089520E0E894559175
:100B70005532C1F3503311F4689455915A3348F407
:100B8000505390F3220F022E220F220F200D250F1B
:100B9000F4CF0EF4219589919991533619F3533777
:100BA00029F1533559F1BC0188279927E8945C361F
:100BB00021F48991999168945591543639F446EF0E
:100BC0007EF077FF0DC08FEF9FEF0AC055374AE0E8
:100BD00039F0583540E121F0523642E009F00895ED
:100BE000FF93EF937DDFEF91FF91B7CFFF93EF93EB
:100BF000FC0181918030B9F360DFFBCFFF93EF936D
:100C000068DFF1CFDF93CF93CDB7DEB72596A3DFB3
:100C1000CF91DF9108950C9419060C941A060C9448
:100C20001B0681FF02C0269A01C026982E980C94BC
:100C300074070895089581E00895CF92DF92EF92AE
:100C4000FF928C3724E1920728F469E070E00E945B
:100C5000852D29C0A0E0B0E08A50974DAF4FBF4F1F
:100C60006627782F892F9A2F25EF38E241E050E050
:100C70000E94AD2D69017A01CA01B9010E94692D56
:100C80009B01AC01C701B6010E94692DBB27A92FAA
:100C9000982F872F009721E0A207B10511F0BC0122
:100CA00002C06FEF7FEFCB01FF90EF90DF90CF900E
:100CB000089581E008951F93CF93DF9300D000D073
:100CC0001F92CDB7DEB749835A836B832091A2016F
:100CD00089819A81211112C0662349F00E94E81F80
:100CE000182F682F89819A810E94911F03C00E944A
:100CF000BC1F182F69817A81812F04C00E94E81FD0
:100D000069817A810F900F900F900F900F90DF9173
:100D1000CF911F910C949209FC0140815181628115
:100D2000738184810C945B060C940D06E82FE29588
:100D3000EF70F0E032A1282F2F7081E090E001C029
:100D4000880F2A95EAF78095832382A3089584303B
:100D500030F4811105C090918000977F04C083E03A
:100D600090918000986090938000282F30E0AFEF42
:100D7000BFEF0E94D52D23E030E040E050E00E941C
:100D8000AD2DC9010E941D0690938D0080938C00AB
:100D9000089580916F0081700895109267011092FC
:100DA000660110926801EFE6F0E080818160808347
:100DB0000895EFE6F0E080818E7F80830E94B42565
:100DC0000C94A7060E94C90681110C94D9060C94B4
:100DD000CD061F920F920FB60F9211242F933F93BF
:100DE0004F935F936F937F938F939F93AF93BF9333
:100DF000CF93EF93FF932091000180916601909132
:100E00006701019644EF249F90011124B9010E94CB
:100E1000852D9093670180936601B901660F672F56
:100E2000661F770B71950E94852D6F778091680101
:100E3000823019F4603451F404C0813039F46F37D2
:100E400029F480916F008E7F80936F00E62FF0E091
:100E5000E159FD4FC4910E94B425282F41E051E093
:100E6000C49FC001C59F900D112463E070E00E94F3
:100E7000852D269FC001279F900D11240E941D06DD
:100E800090938D0080938C00FF91EF91CF91BF9153
:100E9000AF919F918F917F916F915F914F913F9112
:100EA0002F910F900FBE0F901F901895279A87E3F0
:100EB0000E9496068AE08093800089E180938100F9
:100EC0008FEF9FEF90938700809386000E9490247D
:100ED0000C94CD060E943721811102C00E94C421CA
:100EE0000E9456070C940B0608950C941106089561
:100EF0000E94031B0E9477072FEF84E39CE02150A0
:100F000080409040E1F700C000000C94EF220F9366
:100F10001F93CF93DF938C010E948C06EC01B801E4
:100F20000E940F06882309F4F7C1B801CE010E9480
:100F30000315882309F4F0C1CA3CFCE5DF0741F43E
:100F4000F8018281882309F4E7C10E940F11E4C1EE
:100F5000CB3C8CE5D80708F013C1C23C9CE5D9070F
:100F600041F4F8018281882309F4D6C10E94A913B3
:100F7000D3C1C33CECE5DE0708F0B8C0C531FCE5E1
:100F8000DF0708F07CC0C2308CE5D80708F452C0F7
:100F9000F8018281882309F454C00E94372181110D
:100FA00002C00E94C4210E94542190E090936102EB
:100FB00080936002FE01E350FC45E231F10530F41C
:100FC000EA5AFF4F809160020C94CF2D809160020D
:100FD000816027C0826025C0846023C0806121C0F9
:100FE00080621FC080641DC080681BC084608860F0
:100FF00018C08E7F16C08D7F14C08B7F12C08F7E6D
:1010000010C08F7D0EC08F7B0CC08F770AC08B7F86
:10101000877F07C087FB222720F991E0922790FB6A
:1010200087F980936002809160020E9458210E949B
:10103000031B72C1C1159CE5D90751F0C130DC45D5
:1010400079F0C801DF91CF911F910F910C9459064F
:10105000F8018281882309F45FC10E9478075CC18E
:10106000F8018281882309F457C180911D028160B3
:1010700080931D028EE592E00E9469054DC1C63144
:10108000FCE5DF0739F50E946920982FF80182817D
:1010900020910F0130911001882379F09A7A81E034
:1010A00009F480E080936901911102C069E201C0F6
:1010B00065E3C9010E94F9210AC08091690181118B
:1010C00002C069E201C065E3C9010E94FB210E94E0
:1010D000AA2022C1C13CDC4509F0B3CFF8018281CE
:1010E000882309F419C10E94E20616C1F801828121
:1010F000C63CFCE5DF0731F4882309F40DC10E94EA
:10110000D3100AC1C73C9CE5D90708F5C43CECE5FF
:10111000DE0751F4882309F4FFC00E94692082721F
:1011200069F40E94F612F8C0C53CDC4550F48823EF
:1011300009F4F2C00E946920827299F70E94E912B4
:10114000EBC0882309F4E8C00E94C610E5C0C83C83
:101150009CE5D90731F4882309F4DEC00E94F11020
:10116000DBC0C93CDC4530F4882309F4D5C00E94BB
:10117000E210D2C0882309F4CFC00E940011CCC075
:10118000C13DFCE5DF0789F4F8018281882309F479
:10119000C3C00E94070F8F3020F00E94070F8431D8
:1011A00068F28FE00E94F912B7C0C23D8CE5D80703
:1011B00008F05AC0CD3C9CE5D90739F4F80182818A
:1011C000882309F4A9C081E0EDCFCE3CECE5DE0731
:1011D000C0F4CB3CFCE5DF0741F4F80182818823B1
:1011E00009F49AC00E940F0F97C0CC3CDC4509F06F
:1011F00028CFF8018281882309F48EC00E94200F35
:101200008BC0F8018281CF3CFCE5DF0771F48823B5
:1012100009F482C00E94070F863028F00E94070F51
:10122000883008F48BCF86E0BDCFC03DDC4570F43C
:10123000882309F471C00E94070F823028F00E94B1
:10124000070F853008F47ACF82E0ACCF882309F409
:1012500063C00E94070F893028F00E94070F8E306C
:1012600008F46CCF89E09ECFC53DECE5DE0739F48C
:10127000F8018281882309F44FC083E293CFC63DF1
:10128000FCE5DF0740F5F8018281C33DFCE5DF079F
:1012900029F4882309F440C088E184CFC43DDC45AB
:1012A00068F48823C9F10E94070F853128F00E9455
:1012B000070F873108F442CF85E174CF882361F1AD
:1012C0000E94070F893128F00E94070F823208F42C
:1012D00035CF89E167CFCD3DECE5DE0741F4F8017C
:1012E00082818823C9F082E00E949F2815C0CE3DEC
:1012F000FCE5DF0739F4F8018281882369F00E9458
:10130000C4210AC0CC3DDC4509F09BCEF8018281A6
:10131000882311F080E0E8CF80E0DF91CF911F912A
:101320000F91089526E4829FC0011124FC012EE054
:10133000729FE00DF11D1124E60FF11DEE0FFF1F4E
:10134000EA5BFE4F859194910895880F991FFC01E7
:10135000E151FD4F859194910895CF93DF930E94C1
:1013600092090E949E0BEC01811521E5920708F07D
:1013700042C0811540E5940708F02FC1883E9105D1
:1013800000F5803E910508F0D5C1883A910570F4CA
:10139000853A910508F0A4C08130910509F4CAC1CD
:1013A00008F47BC1049708F0C5C177C18F3B910554
:1013B00008F4A1C0803C910508F46FC1805C9109DC
:1013C000FBC0C11580E3D80780F4C11520E2D20725
:1013D00008F0F0C0C03FD10508F45FC1CF3FD10590
:1013E00011F008F0A7C1D065A5C1C11540E4D4072C
:1013F00008F0F0C0E5C0C11589E5D80760F5C11552
:1014000028E5D20708F035C1C11544E5D40778F4C2
:10141000C11583E5D80708F011C1C11522E5D2072F
:1014200008F0F6C0DC2FCC27C16FD06A83C1C1158C
:1014300045E5D40708F418C1C11586E5D80708F0BA
:101440002CC18C2F0E941A0C8F71C82FD0E0DC2F7A
:10145000CC27D0626FC1CD3B2CE5D20709F414C173
:10146000F0F4CB3B8CE5D80709F408C108F009C1BA
:10147000C1154AE5D40708F010C18C2F8F700E9467
:101480001A0C94E0D695C7959A95E1F7CF70D0E005
:10149000DC2FCC27D06A8F70806EC82B4BC1C03C2C
:1014A0008CE5D80709F4F6C060F4CE3B4CE5D407D0
:1014B00009F4EDC0CF3BDC4509F0EFC0C0E0D2ED50
:1014C00039C1CE0190568115904208F0E6C08D2FAB
:1014D0008F710E941A0CDD27D0628F71D82B2AC120
:1014E000853A910509F4DCC0863A910509F0DBC024
:1014F000C2E8D0E41FC1883A910509F4D7C0893AFF
:10150000910509F4D6C08A3A910509F4D5C08B3A01
:10151000910509F4D4C08C3A910509F4D3C08B3BF2
:10152000910509F4D2C08C3B910509F4D1C08D3AE4
:10153000910509F4D0C0803B910509F4CFC08E3AE3
:10154000910509F4CEC08F3A910509F4CDC0813BD5
:10155000910509F4CCC0823B910509F4CBC0833BD3
:10156000910509F4CAC0843B910509F4C9C0853BC3
:10157000910509F4C8C0863B910509F4C7C0873BB3
:10158000910509F4C6C0883B910509F4C5C0893BA3
:10159000910509F4C4C08D3B910509F4C3C08E3B8D
:1015A000910509F4C2C08A3B910509F4C1C0C0E0AD
:1015B000D4E4C0C0CE019F700E94A509EC01BAC05E
:1015C000CE019927D3FF03C0EC01D86CB3C0EC0166
:1015D000D06CB0C0DF70D06AADC074E096958795CE
:1015E0007A95E1F783709C2F937021E030E002C080
:1015F000220F331F9A95E2F73C68382BCF70C695BF
:10160000C69540E2C49FE0011124C22BD32B92C0A7
:10161000CE018370992721E030E002C0220F331FF2
:101620008A95E2F78C2F8695869540E2849FC001CB
:101630001124E901C82BD92BDC687CC0CE01837052
:10164000992721E030E002C0220F331F8A95E2F78C
:101650008C2F8695869540E2849FC0011124E90174
:10166000C82BD92BDA6866C0DC2FCC27C46FD06AB0
:1016700061C0DC2FCC27C06FD06A5CC0C0E0D4ED65
:1016800059C0C0E0D5ED56C0C0E0D1ED53C0C0E0B8
:10169000D0ED50C0C0E0D3ED4DC0C0E0D0E04AC0B6
:1016A000C1E8D0E447C0C3E8D0E444C0C2EED4E40B
:1016B00041C0C9EED4E43EC0CAEED4E43BC0C5EBA1
:1016C000D4E438C0C6EBD4E435C0C3EBD4E432C0B4
:1016D000C4EBD4E42FC0C7EBD4E42CC0CCECD4E4EE
:1016E00029C0CDECD4E426C0C3E8D5E423C0CAE8C1
:1016F000D5E420C0C2E9D5E41DC0C4E9D5E41AC0D0
:10170000C1E2D6E417C0C3E2D6E414C0C4E2D6E412
:1017100011C0C5E2D6E40EC0C6E2D6E40BC0C7E2F3
:10172000D6E408C0CFE6D4E405C0C0E7D4E402C0E4
:10173000CAE2D6E4CE01DF91CF91089582389105B7
:1017400049F1B0F48133910509F459C048F4893264
:10175000910509F44FC08A32910509F455C00895E6
:101760008533910509F441C08933910599F00895B5
:10177000833E910531F138F4803E910591F0823E2F
:101780009105A9F00895863E910501F1873E9105E6
:1017900039F108952091600220FD3BC021FD39C040
:1017A00008958091600280FF34C089E341C0809138
:1017B000600282FF30C08091600284FD2EC083EE03
:1017C00037C08091600282FD26C0F5CF8091600213
:1017D00083FF25C08091600284FD1FC087EE28C072
:1017E0008091600283FD1BC0F5CF8091600285FD72
:1017F00018C019C08091600285FD15C012C080918B
:10180000600286FD12C013C08091600286FD0FC089
:101810000CC080EE0DC082EE0BC080E009C086EEE9
:1018200007C089E205C085E303C08AE201C081E305
:1018300090E008959091600292FF0DC0282F2871CA
:10184000283019F4877F846006C0282F2471243043
:1018500011F48B7F886093FF0DC0282F28712831E9
:1018600019F4877E846106C0282F2471243111F475
:101870008B7E886194FD877E0895E82FF0E0EE0F5F
:10188000FF1FE659FE4F808191810895CF92DF922C
:10189000EF92FF920F931F93CF93DF938FEF92E01E
:1018A0000E9469058AE6E82E81E0F82EC0E0D0E0CB
:1018B0009AEFC92E92E0D92E01EF12E0DF93CF9379
:1018C000DF92CF920E94020687EF92E00E946905A4
:1018D000F701819191917F010E9424219F938F9321
:1018E0001F930F930E9402068FEE92E00E946905FB
:1018F00021968DB79EB708960FB6F8949EBF0FBE7F
:101900008DBFC530D105D1F6DF91CF911F910F91D9
:10191000FF90EF90DF90CF900895CF93DF93AAE2EE
:10192000B1E04FE251E061E070E08D91E82FE29587
:10193000EF70F0E091A18F709B0101C0220F8A959A
:10194000EAF7822F8095892381A34A175B0769F7FD
:10195000ACE1B1E04AE251E061E070E08D91E82F46
:10196000E295EF70F0E021A18F70EB0102C0CC0F87
:10197000DD1F8A95E2F7CE019C2F9095922391A3CB
:1019800092A1892B82A34A175B0741F7E4E7F1E0B4
:10199000AAE6B1E08EE791E0119211921D921D929C
:1019A0008E179F07C9F785E00E94790DDF91CF91CF
:1019B0000C946A072F923F925F926F927F928F9260
:1019C0009F92AF92BF92CF92DF92EF92FF920F93CE
:1019D0001F93CF93DF932AE2222E21E0322EA4E739
:1019E000B1E03EE7632E31E0732E20E001E010E02D
:1019F0006D018D909C90119711961C921E92E101A1
:101A000089911E01E82FE295EF70F0E031A18F700F
:101A1000A80102C0440F551F8A95E2F7CA01342B72
:101A200031A342A1382F3095432342A350EA5A955F
:101A3000F1F79CE1E92E91E0F92E40E050E0E7015A
:101A400059907E01652D62956F7070E0EB0168A181
:101A5000AD90BC90119770E0D52DDF7002C07595E8
:101A60006795DA95E2F760FD08C0B801042E02C060
:101A7000660F771F0A94E2F702C060E070E06A29FF
:101A80007B2911967C936E934F5F5F4F4E305105CB
:101A9000B1F691A1392331A392A1892B82A3129689
:101AA00081E0F601408151814815590509F480E033
:101AB000282B6A167B0609F09BCF45E06AE671E0A9
:101AC00084E791E00E947A0D0E94940681E0DF9104
:101AD000CF911F910F91FF90EF90DF90CF90BF902B
:101AE000AF909F908F907F906F905F903F902F90DE
:101AF00008950895FF920F931F93CF93DF93F82ECD
:101B0000092F162FD72FC42F222349F081E080936D
:101B100080010E94932290937F0180937E018091A7
:101B200080018823D9F080917E0190917F010E94ED
:101B30009F22069798F0EF2DF02FA12FBD2F80E068
:101B400090E04C2F50E08417950734F421913191A7
:101B50002D933D930196F7CF10928001DF91CF91A5
:101B60001F910F91FF900895EF92FF920F931F9393
:101B7000CF93DF93F62F472FE82F711103C0682F03
:101B8000782F7CC0C72FD0E0082F10E026E0629F9E
:101B9000C00111242FEF30E0B9010E94852D5BEACE
:101BA0005603C001579F900D11248F0F911D8F0F69
:101BB000911D982F990F890F7901EC1AFD0AE09E6B
:101BC000D001E19EB00DF09EB00D1124489FA00100
:101BD0001124452F55277901E41AF50AE09EA0014A
:101BE000E19E500DF09E500D11247901E81AF10884
:101BF000EC9EC001ED9E900DFC9E900D1124892F4E
:101C00009927281B390B209FC001219F900D309FE1
:101C1000900D11246230710599F050F46115710531
:101C2000E9F061307105B9F48B2F7E2FE52F18C0D4
:101C30006430710561F038F06630710579F00BC0E1
:101C4000892F7E2F02C08E2F752FEB2F09C08E2F6C
:101C50007B2FE92F05C0852F7B2F02C08B2F792F7B
:101C6000F0E0E75FF84F6491E72FF0E0E75FF84FAF
:101C70007491E82FF0E0E75FF84F8491DF91CF9106
:101C80001F910F91FF90EF9008950895CF93DF93E8
:101C9000762FE901682F842F0E94B40D6983788321
:101CA0008A83DF91CF91089580912D02282F269568
:101CB00030E02115310519F48170826005C02532AC
:101CC000310524F08170886480932D02089588E0A6
:101CD00090E00C94042ECF92DF92EF92FF926B0172
:101CE0007C010E94540EB701A60188E090E0FF90AD
:101CF000EF90DF90CF900C94222EEDE2F2E083E0A3
:101D0000808311828FEF828383831482608171814B
:101D1000828193810C946B0E80911D0280FF08C01C
:101D20008BED95E09F938F930E9402060F900F908A
:101D300080911D0280FF0FC080912D0281701F9243
:101D40008F938EEB95E09F938F930E9402060F90E6
:101D50000F900F900F9080911D0280FF0FC0809117
:101D60002D0286951F928F9383EA95E09F938F9320
:101D70000E9402060F900F900F900F9080911D020D
:101D800080FF0EC080912E021F928F9389E895E00C
:101D90009F938F930E9402060F900F900F900F90C9
:101DA00080911D0280FF0EC080912F021F928F93A1
:101DB0008FE695E09F938F930E9402060F900F90FD
:101DC0000F900F9080911D0280FF0EC08091300215
:101DD0001F928F9385E595E09F938F930E94020653
:101DE0000F900F900F900F9080911D0280FF0EC0FA
:101DF000809131021F928F9389E395E09F938F9397
:101E00000E9402060F900F900F900F9008958091FE
:101E10002D0280FF02C08695089580E0089580918C
:101E20003102833018F48F5F8093310260912D026C
:101E300070912E0280912F02909130020C946B0EC3
:101E400080913102882319F0815080933102609192
:101E50002D0270912E0280912F02909130020C94ED
:101E60006B0E8091840123E0829FC00111248E5C5F
:101E70009D4F6091030170E020912D0220FD0AC06A
:101E8000E2E3F2E0118210821282339622E0EC3516
:101E9000F207C1F70C948C1490912D0290FF0CC0A6
:101EA000E2E3F2E0818360834283339692E0EC3593
:101EB000F907C1F70C94310F0895CF93DF9300D049
:101EC0001F92CDB7DEB790912D0290FF0AC09E0100
:101ED0002F5F3F4F0E94460E4B8169818A810E948D
:101EE0004C0F0F900F900F90DF91CF910895CF93EB
:101EF000DF93EC01EC81F0E0EC5FF94F4491EDE20F
:101F0000F2E0628181810E945D0F8C818F5F8C8302
:101F1000DF91CF910895CF93DF93EC01EDE2F2E0F2
:101F2000438162818C810E945D0F8C818F5F8C83E5
:101F3000DF91CF9108950F931F93CF93DF9300D03C
:101F40001F92CDB7DEB78C018091810181110AC04B
:101F50009E012F5F3F4F4FEF6FEF0E94460E8A8129
:101F600080938101F8018481813051F028F0823022
:101F700061F4409181010AC08091810140E007C075
:101F80006091810140E080E003C040E080E060E0DB
:101F90000E944C0FF801848190E0019663E070E0AC
:101FA0000E94992D84830F900F900F90DF91CF9115
:101FB0001F910F9108952F923F924F925F926F92CF
:101FC0007F928F929F92AF92BF92CF92DF92EF92C9
:101FD000FF920F931F93CF93DF9300D000D0CDB724
:101FE000DEB7182F462E542E222E90912D0290FFF0
:101FF000ACC0E92FE695AE2FB0E0A15DBE4F8C914D
:1020000080938C019E7F923061F49E012F5F3F4F41
:10201000812F0E94460E4B8169818A810E944C0F5C
:1020200062C0823019F4509030025DC0863019F4DD
:1020300010912E0258C08930D9F3893109F053C06C
:10204000E9518E2F8170382E81E083258C83E695AF
:10205000F0E0EC5FF84FC590D49082E3A82E82E0C8
:10206000B82EE12CF12CDD249EE0692E712C24E9A0
:10207000822E23E0922EEC9CC001ED9C900DFC9CE6
:10208000900D1124B3010E94852D012F311002C043
:10209000060F01C0061B80911D0280FF12C0DF9257
:1020A000CF921F929C819F931F920F93FF92EF926A
:1020B0009F928F920E9402060FB6F894DEBF0FBE69
:1020C000CDBF9501452D642D802F0E94460E9FEFB8
:1020D000E91AF90A83E0A80EB11C9EE0E916F104A2
:1020E00051F60E94310F10932E0240922F0250920F
:1020F00030022220C9F060912D0270912E02809151
:102100002F02909130020E946B0E809130021F923C
:102110008F9380912F021F928F9380912E021F9296
:102120008F938FE693E008C01F925F921F924F92A9
:102130001F921F9388E493E09F938F930E9402065F
:102140000FB6F894DEBF0FBECDBF0F900F900F906B
:102150000F90DF91CF911F910F91FF90EF90DF9043
:10216000CF90BF90AF909F908F907F906F905F9037
:102170004F903F902F900895EDE2F2E09181282F4B
:10218000438162818CE0890F0C94DB0F81E00C9419
:10219000BC10EDE2F2E09181282F4381628184EF4F
:1021A000890F0C94DB0F81E00C94C910EDE2F2E092
:1021B00062812CE0620F08F46FEF282F4381818148
:1021C0000C94DB0F81E00C94D610EDE2F2E062811A
:1021D0002CE0621B08F460E0282F438181810C947D
:1021E000DB0F81E00C94E510EDE2F2E043812CE09E
:1021F000420F08F44FEF282F628181810C94DB0F8E
:1022000081E00C94F410EDE2F2E043812CE0421BFB
:1022100008F440E0282F628181810C94DB0F81E07B
:102220000C94031120E00C94DB0FEF92FF921F93AC
:10223000CF93DF93EC0182E3E82E82E0F82E10E0EA
:102240008C8197014091300260912F02810F0E9492
:10225000460E1E5E83E0E80EF11C1C3F89F70E94CB
:10226000310F9A818C8190FF02C08F5F01C0815035
:102270008C83DF91CF911F91FF90EF900895CF92C3
:10228000DF92EF92FF920F931F93CF93DF93FC01A6
:10229000828180FF03C0DD24DA9402C0DD24D39460
:1022A00002E312E0C0E0D0E0F80111821082128255
:1022B00094E0E92EF12CC12C809183018C0D87FDD7
:1022C000825F082E000C990BC817D90791F48091F2
:1022D00030028E9DA0018F9D500D1124559547957C
:1022E00055954795980160912F0280912E020E948A
:1022F000460ECD0CF1E0EF1AF108F1F621960D5FD4
:102300001F4FCE30D10581F60E94310F809183019D
:1023100091E0D91206C0811102C08DE007C0815042
:1023200005C090E00196BE010E94992D8093830123
:10233000DF91CF911F910F91FF90EF90DF90CF90A1
:1023400008950F931F93CF93DF93C2E3D2E0FE0172
:10235000118210821282339682E0EC35F807C1F7C1
:1023600000E010E080918201082E000C990B081704
:10237000190794F080910201082E000C990B801728
:10238000910754F09E014091300260912F0280919C
:102390002E020E94460E03C0198218821A820F5F15
:1023A0001F4F23960E301105E9F60E94310F8091E0
:1023B000010190918201980F909382012091020176
:1023C000280F20930201121614F49D301CF0819501
:1023D00080930101DF91CF911F910F910895EF92AA
:1023E000FF920F931F93CF93DF93EC018C819D811C
:1023F0000196817099279D838C8382E3E82E82E089
:10240000F82E10E005E5212F26958C819D81820F05
:10241000911D817097014091300260912F02809F41
:10242000802D11240E94460E1F5F83E0E80EF11CF0
:102430001E3049F7DF91CF911F910F91FF90EF90E0
:102440000C94310FEF92FF920F931F93CF93DF9372
:102450008C01C2E3D2E0E12CF12CF8018481F7E099
:10246000EF16F1041CF4882339F002C0811104C076
:102470009E014091300202C09E0140E060912F0217
:1024800080912E020E94460E8FEFE81AF80A2396DA
:102490009EE0E916F10409F70E94310FF8018481EA
:1024A00090E00196817099278483DF91CF911F91ED
:1024B0000F91FF90EF90089560912D02669570E066
:1024C0004BE050E084E091E00E94EF2D892B19F45D
:1024D00081E080938D010E949322909386018093E6
:1024E000850180911D0280FF08C08FE293E09F93D9
:1024F0008F930E9402060F900F90089510928D0105
:1025000080911D0280FF08C086E193E09F938F9326
:102510000E9402060F900F90089590912D0290FF57
:102520004CC09170811102C0926006C0853210F0DB
:10253000986402C0880F982B90932D02662391F027
:1025400060912D0270912E0280912F0290913002A5
:102550000E946B0E80912D0286951F928F938FE7BC
:1025600094E007C080912D0286951F928F9381E69B
:1025700094E09F938F930E9402060F900F900F900C
:102580000F9060912D02669570E04BE050E084E082
:1025900091E00E94EF2D892B19F00E947E1202C05B
:1025A0000E945C1281E0809388014091300260912A
:1025B0002F0280912E020C9412110895682F909191
:1025C0002D02969581E0890F853208F081E00C9408
:1025D0008D1281E00C94DE12682F90912D02969559
:1025E0008FEF890F09F484E20C948D1281E00C9432
:1025F000EC1261E00C948D12CF93DF93CDE2D2E028
:102600008881816088831F9281E08F9383EF93E0BC
:102610009F938F930E9402060F900F900F900F9040
:1026200088818695DF91CF910C94F91260E00C942B
:102630008D1280918B01811161C080911D0281609A
:1026400080931D0282E295E09F938F930E94020681
:1026500080911D020F900F9080FF08C08CE095E0E4
:102660009F938F930E9402060F900F900E94372134
:10267000811110C080911D0280FF08C084EE94E09B
:102680009F938F930E9402060F900F900E94C42187
:102690000E947D0E0E94670E60932D0270932E02A1
:1026A00080932F02909330026E7FC1F480911D02BF
:1026B00080FF08C08BE994E09F938F930E940206ED
:1026C0000F900F900E947D0E0E94670E60932D0266
:1026D00070932E0280932F02909330020E94540E2A
:1026E0000E948C0E10928D0180912D0280FF03C0FC
:1026F00086950E94161381E080938B010895CF93F5
:10270000DF93CDE2D2E088818E7F888368817981F2
:102710008A819B810E946B0E888181701F928F93AA
:102720008BEB93E09F938F930E9402060E947E1290
:102730002FEF80E792E0215080409040E1F700C009
:1027400000000F900F900F900F90DF91CF910C949D
:10275000310F80912D02809581701F928F938AE2B4
:1027600094E09F938F930E94020680912D020F9018
:102770000F900F900F9080FD0C947F130C94FC121F
:102780000F931F93CF93DF9380918D01882309F4DA
:102790008CC080918C01E0912D02E695E81BE093BE
:1027A0008701823049F4F0E0E050FA4FE491CE2FF7
:1027B000D0E007E71FE049C0863049F4F0E0E3507D
:1027C000FA4FE491CE2FD0E00BE81FE03EC08930F5
:1027D00051F4E695F0E0E650FA4FE491CE2FD0E0C8
:1027E00005E111E132C08F3051F4E695F0E0E95097
:1027F000FA4FE491CE2FD0E00FE311E126C08531EE
:1028000049F4F0E0EC50FA4FE491CE2FD0E001EA29
:1028100011E11BC0883181F0833239F4E2EFF5E039
:10282000C591D4910BE91FE010C0843251F4C4EF7C
:10283000D1E002E212E109C0C8EED3E00FEE11E1EF
:1028400004C0C0EDD7E005E41EE080918801882334
:1028500089F0109288010E9493229E012095309564
:10286000820F931F909386018093850110928A01B5
:102870001092890180918501909186010E949F228A
:102880008C179D0790F0E0918501F0918601CE0FA5
:10289000DF1FD0938601C093850185E891E0F801A0
:1028A000DF91CF911F910F910994DF91CF911F91EB
:1028B0000F91089521B3342F3095232331B3432B47
:1028C0003FB7F894FC01680F791FE617F70789F006
:1028D000819198E041BB000000C087FF21BB880FB9
:1028E000000000C000C000C021BB00C09A9591F755
:1028F000ECCF3FBF089520B3242B20BB9B01220FB8
:10290000331F620F731F0E945A1487EC90E00197E7
:10291000F1F700C00000089541E00C947B140F9380
:102920001F93CF93DF93C62FD42F122FFC018281E8
:102930008823C9F0609390010E94932290938F01A5
:1029400080938E0180E28C0F883008F057C0C770EA
:1029500081E001C0880FCA95EAF7DF91CF911F91FE
:102960000F910C947E1880919001681330C0809173
:102970008E0190918F010E949F22883C910538F52D
:1029800000E20D0FCD17B9F080E28C0F883040F4D3
:10299000C77081E001C0880FCA95EAF70E948518C8
:1029A000083028F581E09D2F977001C0880F9A9517
:1029B000EAF70E947E18812F0E9476180830F0F402
:1029C000D77081E001C0880FDA95EAF70AC080E28B
:1029D0008C0F883098F4C77081E001C0880FCA95C9
:1029E000EAF7DF91CF911F910F910C948518812FF9
:1029F000DF91CF911F910F910C947618DF91CF91B9
:102A00001F910F9108959C01CB01203F4CE53407A5
:102A100019F178F4283D4CE53407B9F0293D4CE52F
:102A2000340731F1273D3C4531F526E241EE61EEB8
:102A30000FC0223F4CE53407B9F090F0233F3C45EE
:102A4000D1F427E246EE66EE03C027E245EE65EEDE
:102A50000E948F1480E0089526E240EE60EEF8CFE9
:102A600027E244EE64EEF4CF26E242EE62EEF0CFCF
:102A700028E241E0ECCF1092900181E0089590931C
:102A80009601809395010895E0919501F09196014A
:102A9000309721F00190F081E02D099480E00895B5
:102AA000EF92FF920F931F93CF93DF93E0919501E5
:102AB000F09196013097B1F18C010280F381E02D05
:102AC000099580911D0282FF2DC080FF04C081E125
:102AD00098E00E946905E80118E08BE0E82E88E0A4
:102AE000F82E80911D0280FF0BC088811F928F936A
:102AF000FF92EF920E9402060F900F900F900F909E
:102B0000115021961111EDCF80911D0280FF0AC056
:102B100089E098E0DF91CF911F910F91FF90EF90A6
:102B20000C946905DF91CF911F910F91FF90EF9069
:102B3000089520919301309194012817390771F07D
:102B40009093940180939301E0919501F091960107
:102B5000309721F00680F781E02D099408952091A7
:102B60009101309192012817390771F090939201E9
:102B700080939101E0919501F0919601309721F0B9
:102B80000084F185E02D0994089585B7806885BF9C
:102B900085B7806885BF089508950C94CC150C9472
:102BA000CD150C94CC150C94CC150E94C5150E9423
:102BB000D1150C94CF1581E008950E948A220E94BD
:102BC0008D0C0E945F230E9490240E9419130C9484
:102BD000D315CF93C82F80911D0282FF1EC080FFA6
:102BE00004C08AE298E00E94690580911D0280FF7E
:102BF0000CC01F92CF9385E298E09F938F930E9421
:102C000002060F900F900F900F9080911D0280FF91
:102C100004C083E298E00E9469058C2FCF910C9448
:102C200075075F926F927F928F929F92AF92BF9241
:102C3000CF92DF92EF92FF920F931F93CF93DF9388
:102C4000CDB7DEB72A970FB6F894DEBF0FBECDBF63
:102C50000E94DA0C0E94DB15811111C08FEF89836D
:102C60008A831B820E9493228160782F9D838C83AC
:102C700049815A816B818D810E94CC1656C098E99A
:102C8000692E91E0792E00E010E088248394912C45
:102C9000502E802F0E943D0C6C01F301A190B19049
:102CA0003F01A826B926A114B10431F40F5F1F4FCC
:102CB0000530110569F7D2CF80911D0281FD0E9478
:102CC000460C80E090E07401082E02C0EE0CFF1C60
:102CD0000A94E2F795012E213F21232B09F18E83DF
:102CE0005F82CE20DF2081E0CD2809F480E0888754
:102CF0000E9493228160782F9A8789874E815F8115
:102D000068858A850E94CC16000F111FF801E856CD
:102D1000FE4F80819181E826F926F182E08205C08C
:102D200001968E30910579F6C1CF0E94441590919D
:102D300097018917D9F00E944415809397012A962C
:102D40000FB6F894DEBF0FBECDBFDF91CF911F91BC
:102D50000F91FF90EF90DF90CF90BF90AF909F903A
:102D60008F907F906F905F900C94E9152A960FB624
:102D7000F894DEBF0FBECDBFDF91CF911F910F91B1
:102D8000FF90EF90DF90CF90BF90AF909F908F908B
:102D90007F906F905F900895CF93DF93CDB7DEB7AC
:102DA0002B970FB6F894DEBF0FBECDBF4F83588769
:102DB00069877A878B87DE01119686E0FD01119283
:102DC0008A95E9F785E0FE01379601900D928A9584
:102DD000E1F749815A816B817C818D819E810E94BE
:102DE000D31D2B960FB6F894DEBF0FBECDBFDF917B
:102DF000CF910895FC01808191810E942A2008953D
:102E0000882309F413C1682F8238C1F40E94441545
:102E100081FD0CC169E380910F01909110010E9426
:102E2000F9210E94AA202FEF81EE94E021508040EA
:102E30009040E1F700C0000069E319C08338F9F45D
:102E40000E94441580FDF2C063E580910F019091CE
:102E500010010E94F9210E94AA202FEF81EE94E038
:102E6000215080409040E1F700C0000063E5809170
:102E70000F01909110010E94FB210C94AA2084382C
:102E8000C1F40E94441582FDD1C067E480910F0116
:102E9000909110010E94F9210E94AA202FEF81EE4B
:102EA00094E0215080409040E1F700C0000067E4CA
:102EB000DECF8CEF860F813A38F480910F0190912C
:102EC00010010E94F921D9CF80E2860F883048F4A2
:102ED000677081E001C0880F6A95EAF70E946C2054
:102EE000CCCF8BE5860F833070F4653A29F0663AD3
:102EF00031F083E890E005C081E890E002C082E80C
:102F000090E00C94991588E5860F873108F08EC003
:102F1000683A09F445C0693A09F445C06A3A09F4C7
:102F200045C06B3A09F445C06C3A09F445C06B3BA7
:102F300009F445C06C3B09F445C06D3A09F445C03D
:102F4000603B09F445C06E3A09F445C06F3A09F494
:102F500045C0613B09F445C0623B09F445C0633B91
:102F600009F445C0643B09F445C0653B09F445C01C
:102F7000663B09F445C0673B09F445C0683B09F46A
:102F800045C0693B09F445C06D3B09F445C06E3B43
:102F900009F445C06A3B09F445C080E090E044C0B4
:102FA00082EE90E041C089EE90E03EC08AEE90E073
:102FB0003BC085EB90E038C086EB90E035C083EBFA
:102FC00090E032C084EB90E02FC087EB90E02CC003
:102FD0008CEC90E029C08DEC90E026C083E891E075
:102FE00023C08AE891E020C082E991E01DC084E915
:102FF00091E01AC081E292E017C083E292E014C02F
:1030000084E292E011C085E292E00EC086E292E096
:103010000BC087E292E008C08FE690E005C080E731
:1030200090E002C08AE292E00C94AF1508958823E4
:1030300009F45BC0682F823879F40E94441581FF3F
:1030400054C069E380910F01909110010E94F92111
:103050000E94AA2069E310C08338B1F40E9444158D
:1030600080FF43C063E580910F01909110010E94A1
:10307000F9210E94AA2063E580910F01909110012F
:103080000E94FB210C94AA20843879F40E944415F4
:1030900082FF2BC067E480910F01909110010E9484
:1030A000F9210E94AA2067E4E7CF8CEF860F813ACE
:1030B00018F380E2860F883048F4677081E001C021
:1030C000880F6A95EAF70E947220DCCF8BE5860FA5
:1030D000833020F480E090E00C949915685A6731B1
:1030E00020F480E090E00C94AF150895CF93C82FA2
:1030F0000E9400178C2FCF910C941718882321F071
:103100000E946C200C94AA200895882321F00E942C
:1031100072200C94AA2008958F929F92AF92BF9232
:10312000DF92EF92FF920F931F93CF93DF937C0177
:10313000D62FC72FFC01058102950F701281111146
:103140000E9489200E946220882379F0112369F06F
:1031500080E28D0F883048F082E00E94F4200E94C7
:10316000622091E0D82ED92601C0D12CBC2EB29479
:103170008FE0B8228B2D90E08E30910508F0C8C109
:10318000FC01E859FF4F0C94CF2D8C2F807FCF701E
:10319000882311F0C295C07F112399F0CC2309F444
:1031A00081C180E28D0F883010F0D11104C08C2FC6
:1031B0000E946C2003C08C2F0E947C200E94AA20B9
:1031C00071C18D2F0E941718CC2309F4A1C180E290
:1031D0008D0F883010F0D11104C08C2F0E94722006
:1031E00003C08C2F0E9482200E94AA2091C18C2FA4
:1031F000807FCF70803211F0C295C07FDD2319F03F
:10320000D130C9F022C0112371F0002341F0013008
:1032100031F40E948F208C2B0E94972079C10E944C
:103220008F208C2B1DC0002319F0013009F470C1D0
:103230000E94A0201AC0112321F0063008F068C1B6
:103240000EC0053008F064C110C0112361F00023E6
:1032500031F0F701858180FF25C18F7085838C2F28
:103260000E947E1855C101112EC18C2FDAC08C2FFF
:1032700086958695837019F0813061F049C11123DC
:1032800021F08D2F9C2F937002C080E090E00E946F
:1032900099154BC1112321F08D2F9C2F937002C0E3
:1032A00080E090E00E94AF1540C18C2F837009F040
:1032B0004CC0111136C12D2F229526952770220F53
:1032C000220F6D2F6F70862F90E0A0E0B0E04C01D0
:1032D0005D01022E04C0880C991CAA1CBB1C0A9418
:1032E000D2F7D4FF12C08FE090E0A0E0B0E004C0BD
:1032F000880F991FAA1FBB1F2A95D2F7BC01CD01C9
:10330000609570958095909503C060E070E0CB016A
:10331000C695C695C370C23051F080F468297929EA
:103320008A299B29C13071F00E94A71EFAC0682922
:1033300079298A299B290E94B91EF3C00E94A71EE1
:10334000C501B4010E94951EECC0112319F08C2F09
:10335000817001C08695882309F4E3C02D2F229542
:1033600026952770220F220F6D2F6F70862F90E009
:10337000A0E0B0E04C015D01022E04C0880C991C55
:10338000AA1CBB1C0A94D2F7D4FF12C08FE090E0B5
:10339000A0E0B0E004C0880F991FAA1FBB1F2A95A8
:1033A000D2F7BC01CD01609570958095909503C0D2
:1033B00060E070E0CB01C695C695C370C23051F095
:1033C00080F4682979298A299B29C13071F00E94EB
:1033D0006C1FA7C0682979298A299B290E947E1F12
:1033E000A0C00E946C1FC501B4010E945A1F99C061
:1033F0008D2F90E0FC01E05EF109E531F10508F068
:103400004DC0EA58FF4F0C94CF2DDF708C2F8F7179
:10341000112321F00E94F31E8D2F22CF0E94141F32
:103420008D2F0E94851874C0112341F0053008F0DB
:103430006FC08C2F8F710E94391F6AC0063008F050
:1034400067C0F7CF112339F08C2F8F710E94F31EC4
:103450005FC01123C9F38C2F8F710E94141F58C0B5
:10346000112329F08C2F8F710E94DE1E51C00E9403
:10347000D91E4EC0112349F0CF718C2F0E94F31E2C
:1034800063E08C2F0E94DF2043C081E00E94F42083
:103490000230F0F182E00E94F4203AC0112331F0B2
:1034A000002391F28D2F0E94001732C0002399F261
:1034B000D93349F4FFEF27EE83E0F15020408040FC
:1034C000E1F700C000008D2F0E94171821C01111D4
:1034D0002CC0CF70C23091F038F4CC2361F0C130F1
:1034E000B9F40E94DD2421C0C43071F050F0C53021
:1034F00079F480E00AC00E94AD2417C00E944725DD
:1035000014C00E94632511C083E00E9499250DC05C
:1035100098E0B91631F0B91640F086EF8B0D823085
:1035200020F40E9444150E947507DD20E1F00E94FE
:103530005E2080FD18C0F70112820E9458200E9470
:10354000F31EC7010E94BF1A0E945820DF91CF913D
:103550001F910F91FF90EF90DF90BF90AF909F90E1
:103560008F900C94141FDF91CF911F910F91FF90BA
:10357000EF90DF90BF90AF909F908F9008950F9342
:103580001F93CF93DF93EC01988189812B813C813C
:10359000232B31F08F3F31F481E09F3F19F403C0BA
:1035A00081E001C080E080FD13C0CE010E9487074A
:1035B000882371F0688179818A810E9435208C018D
:1035C0000E94901F0E94811EB801CE010E948C189B
:1035D000DF91CF911F910F9108950E9489200E9441
:1035E0008C200E94AA2080E090E00E94991580E043
:1035F00090E00C94AF1580910F01909110010E9402
:10360000FD210C94ED1A0E9479200C94FB1AE92FED
:10361000E295EF704E2F50E0FA013297EE30F1054F
:10362000B0F4E557FF4F0C94CF2D803F91F018F484
:10363000803E68F40EC0843F51F40BC0803E48F0D9
:10364000813F29F406C093FB882780F9089580E024
:10365000089581E008950E942A200E94071B089582
:10366000CF93DF9300D000D01F92CDB7DEB70F907D
:103670000F900F900F900F90DF91CF910895CF93FF
:10368000DF9300D000D000D0CDB7DEB726960FB6BE
:10369000F894DEBF0FBECDBFDF91CF9108951F9389
:1036A000CF93DF93C091A30116E08091A401C817C6
:1036B00099F0D0E01C9FF0011D9FF00D1124EB55F7
:1036C000FE4F4081518162817381848195810E9486
:1036D0003F1B2196C770E9CFDF91CF911F910895CD
:1036E0004091D5015091D6016091D7017091D801D8
:1036F0008091D9019091DA010C943F1BCF93809176
:10370000DA0182958F7009F05FC08091D70188231C
:1037100009F45AC08091A301B091A4017091D50120
:10372000A091D6014091D8015091D90191E07F3FFD
:1037300009F090E0692FC6E08B1709F445C04115E8
:10374000510521F0AF3F21F020E003C021E001C08E
:10375000262F90E020FD35C0C89FF001C99FF00DD5
:103760001124EB55FE4F21812A132BC020812713F2
:1037700028C02281211125C02381348124173507D7
:1037800010F421503109241B350B283C3105C8F4B5
:103790002091DA012F7020612093DA0126E0289F22
:1037A000F001299FF00D1124E655FE4F80818F70A6
:1037B0008061808385ED91E00E94BF1ACF910C94C7
:1037C0004F1B01968770B8CFCF910895AF92BF92EB
:1037D000CF92DF92EF92FF920F931F93CF93DF93DD
:1037E000CDB7DEB761970FB6F894DEBF0FBECDBF81
:1037F0008C0185E0F801DE011D9601900D928A95FD
:10380000E1F7D8014C9111965C9111971296EC90CA
:103810003091D5016091D6018091D8019091D90164
:10382000009731F06F3F31F421E03F3F19F403C0BE
:1038300021E001C020E0B22FB170BB2E20FD60C19D
:10384000F801C380D480A090D701AA2009F4EEC06B
:103850002091DA01C816D90628F0D601A81BB90BA9
:10386000CD0104C0809590958C0D9D1DFF24F3948F
:10387000883C910580F0F12C207F09F09CC07C2DC4
:10388000D98AC88A6E2D89890E94301B85ED91E006
:103890000E94BF1A2DC1822F807F09F054C0561399
:1038A00014C0431312C0FE2CE1100FC02F70206112
:1038B0002093DA010E94701B85ED91E00E94BF1AEF
:1038C0008091DA01F80185835CC1CD2831F05F3F3A
:1038D00031F481E04F3F19F403C081E001C080E082
:1038E00080FD03C081E08E2502C080E090E0F82FCB
:1038F000F170FF2E80FF1CC08091A3012091A401D4
:1039000036E0821709F41AC190E0389FF001399F20
:10391000F00D1124EB55FE4F6181561306C06081F6
:10392000461303C06281E61203C001968770E9CF97
:10393000FE2CEE2009F425C18091DA01816080938C
:10394000DA01F12C1EC1561309C0431307C0E11060
:1039500005C08091DA01F8018583A4C04D875E8798
:103960008D859E850E942B1B882379F1EE2069F1BD
:103970002091DA01822F82958F7090E0029774F087
:103980008091D5019091D60198878F831986DB8627
:10399000CA862C87CE0107960E94BF1A86E0F801DE
:1039A000A5EDB1E001900D928A95E1F70E947E1B92
:1039B0000E94701B0DC0561771F04D875E878D8574
:1039C0009E850E942B1B81111AC0C8010E94BF1A3C
:1039D000FF24F394D6C04313F0CFE110EECF8091D3
:1039E000DA01F8018583C8010E94BF1A86E0E5ED7F
:1039F000F1E0DF011D928A95E9F7FA2CC2C0EE20B2
:103A000021F32091DA01822F82958F7090E0029746
:103A10002CF28091D5019091D6019A8389831B82E3
:103A2000DD82CC822E83CE010196B6CFC816D90690
:103A300028F0F601E81BF90BCF0104C080959095A2
:103A40008C0D9D1D883C910548F0F12C7C2DD98A68
:103A5000C88A6E2D89890E94301B4AC0FE2CEE2038
:103A600009F4B3CF561333C0431331C02091DA01A8
:103A700020FD24C0822F82958F70482F50E0411581
:103A80005105E1F0D80115962C9315974F3051054B
:103A900049F08F5F982F9295907F822F8F70892B9E
:103AA00015968C93C8010E94BF1A86E0F801A5ED17
:103AB000B1E001900D928A95E1F73DC086E0F801F2
:103AC000A5EDB1E001900D928A95E1F75AC04D87BE
:103AD0005E878D859E850E942B1B81115FCF809113
:103AE000DA0181608093DA01C8010E94BF1A49C0DF
:103AF000E5EDF1E086E0DF011D928A95E9F71BC054
:103B0000EE2009F462CF4D875E878D859E850E94E9
:103B10002B1BF82E882309F458CF86E0F801A5ED79
:103B2000B1E001900D928A95E1F785ED91E00E9458
:103B3000FA160E947E1B0E94701B23C04D875E8771
:103B40008D859E850E942A20292F22952F70223054
:103B500028F49F7039F0811105C00BC0243028F47F
:103B60009F7049F4805E883020F0C8010E94BF1A1F
:103B7000BF2CFB2C06C0D80115969C91907F91F725
:103B8000F8CF8F2D61960FB6F894DEBF0FBECDBF74
:103B9000DF91CF911F910F91FF90EF90DF90CF9029
:103BA000BF90AF9008951F93CF93DF93CDB7DEB74B
:103BB0002C970FB6F894DEBF0FBECDBF4F8358874A
:103BC00069877A878B879C87CE0107960E94E61BC0
:103BD0008823D1F09F8188852A853B85232B31F06E
:103BE0008F3F31F481E09F3F19F403C081E001C0B1
:103BF00080E080FD47C04F81588569857A858B8537
:103C00009C850E943F1B3EC086E0FE013796DE0188
:103C1000119601900D928A95E1F7FF81E8856A85FA
:103C20007B856115710531F0EF3F31F481E0FF3F95
:103C300019F403C081E001C080E080FD23C0209121
:103C4000A40130E0C9010196877099274091A30132
:103C500050E084179507F1F1F983EA837D836C8343
:103C600096E0929FD001939FB00D1124AB55BE4FAB
:103C7000FE01319601900D929A95E1F78093A4018F
:103C80000E944F1B16E08091A3019091A401891717
:103C900071F1189FC00111248B559E4F0E94E61BA5
:103CA000882329F1E091A3011E9FF0011124EB5517
:103CB000FE4F4081518162817381848195810E9490
:103CC0003F1B8091A30190E0019687709927809314
:103CD000A301D9CF0E94031B1092A4011092A3014B
:103CE000E5EDF1E086E0DF011D928A95E9F72C967B
:103CF0000FB6F894DEBF0FBECDBFDF91CF911F91FD
:103D00000895089508950C94821E0C94831E0E94B9
:103D1000851E60930C0270930D0280930E029093A7
:103D20000F020C94ED1A0C94871E0F931F930091B1
:103D30000C0210910D0220910E0230910F02602BA7
:103D4000712B822B932B1F910F910C94871E0F9335
:103D50001F9300910C0210910D0220910E023091E0
:103D60000F0260237123822393231F910F910C94E0
:103D7000871E0F931F9300910C0210910D0220914A
:103D80000E0230910F0260277127822793271F911F
:103D90000F910C94871E0C94821E0E94CB1E609380
:103DA00008027093090280930A0290930B020C940C
:103DB000ED1A60E070E0CB010C94CD1E0F931F93C1
:103DC00041E050E060E070E08A019B0104C0000F18
:103DD000111F221F331F8A95D2F7C901B8011F9105
:103DE0000F910C94CD1E0F931F9341E050E060E0C3
:103DF00070E004C0440F551F661F771F8A95D2F7E5
:103E00008091080290910902A0910A02B0910B02E0
:103E10008A019B01082B192B2A2B3B2BC901B801C6
:103E20001F910F910C94CD1E0F931F9341E050E012
:103E300060E070E004C0440F551F661F771F8A952D
:103E4000D2F74095509560957095809108029091B9
:103E50000902A0910A02B0910B028A019B0108237A
:103E600019232A233B23C901B8011F910F910C94F8
:103E7000CD1E0F931F9341E050E060E070E004C05E
:103E8000440F551F661F771F8A95D2F7809108024D
:103E900090910902A0910A02B0910B028A019B0144
:103EA000082719272A273B27C901B8011F910F911D
:103EB0000C94CD1E0F931F930091080210910902DC
:103EC00020910A0230910B02602B712B822B932BD5
:103ED0001F910F910C94CD1E0F931F930091080218
:103EE0001091090220910A0230910B026023712384
:103EF000822393231F910F910C94CD1E0F931F9338
:103F0000009108021091090220910A0230910B02DF
:103F100060277127822793271F910F910C94CD1E44
:103F200008952EE0929F800D1124E82FE695E695E6
:103F3000E695877051E001C0550F8A95EAF785E054
:103F4000E89FF0011124E552FE4F20E030E070E0E0
:103F50004081CB01022E02C0969587950A94E2F724
:103F60008170819584278523842781932F5F3F4F1C
:103F70002530310569F708952EE0929F800D1124B8
:103F8000682F669566956695982F977085E0689F6F
:103F9000B001112440E050E080E0FB01E40FF51F88
:103FA000E552FE4F208130E0092E02C0369527955C
:103FB0000A94E2F721703327042E01C0220F0A94DD
:103FC000EAF7822B4F5F5F4F4530510531F7089577
:103FD000BF92CF92DF92EF92FF920F931F93CF93F6
:103FE000DF938C01C0900802D0900902E0900A0291
:103FF000F0900B0280910C0290910D02A0910E02A4
:10400000B0910F02C82AD92AEA2AFB2ACFE1D0E0D0
:10401000D701C6010C2E04C0B695A7959795879534
:104020000A94D2F780FD04C0219790F7B12C07C005
:10403000BC2EB8018C2F0E94AD090197A9F38B2DDE
:10404000DF91CF911F910F91FF90EF90DF90CF9074
:10405000BF900895CF93DF93EC010E94E81FBE014B
:104060000E94AD09DF91CF9108951F93CF93DF9305
:10407000EB019091A201992321F0CB010E942A200B
:1040800013C0882349F0CB010E94E81F182F682F26
:10409000CE010E94911F04C0CB010E94BC1F182FAB
:1040A000BE01812F0E94AD09DF91CF911F9108952C
:1040B00080911002859585958595089580911002CF
:1040C0008770089590911002977081E009F480E064
:1040D000089580911C02089590911C02892B809371
:1040E0001C020895809590911C02892380931C02E4
:1040F000089510921C02089590911B02892B8093C1
:104100001B020895809590911B02892380931B02C6
:10411000089510921B02089510921A02089580913A
:104120001102089508950C9492200C94932090917C
:104130001102981721F0809311020C949520089594
:1041400080911102882329F01092110280E00C94D2
:1041500095200895E0910F01F091100180911C02CB
:104160008083E0910F01F0911001908180911B02FA
:10417000892B8083E0910F01F09110019081809153
:104180001A02892B808380911102882381F0E091AB
:104190000F01F09110019081892B808380910F0194
:1041A000909110010E94C62181110E94A02080914F
:1041B0000F01909110010C9450150C94922098E0EE
:1041C000899F90011124262B209310020E94F31E38
:1041D000809110028595859585950C94DD2010922F
:1041E000100280E00C94DD20209110028095822343
:1041F00080931002982F977079F430E0482F082EA2
:10420000000C550B2417350739F085958595859554
:104210000E94141F0C94EF200895909365018093E1
:10422000640108958295982F937344E0949F9001C0
:1042300011248C7C86958695282B822F8575880F76
:104240002A7A2695822B0895CF93DF93D92F0E9447
:104250001221C82F8D2F0E9412212C2F30E0322FD7
:104260002227A901482BCA01DF91CF91089580E050
:1042700090E00E940A2E21E08D3E9E4F09F020E042
:10428000822F089582E090E00C94FC2D682F82E04C
:1042900090E00C94102E83E090E00C94FC2D682F9D
:1042A00083E090E00C94102E84E090E00C94FC2DC0
:1042B000682F84E090E00C94102E86E090E00C943F
:1042C000FC2D682F86E090E00C94102EAB01BC0111
:1042D0008FE090E00C94222EAB01BC0183E190E0D2
:1042E0000C94222E60E070E0CB010C946C2160E015
:1042F00070E0CB010E9466210C9472216DEE7EEF7E
:1043000080E090E00E942E2E60E082E090E00E942B
:10431000102E60E083E090E00E94102E10920C02BC
:1043200010920D0210920E0210920F0260E084E0D3
:1043300090E00E94102E60E085E090E00E94102E38
:1043400060E086E090E00E94102E6FEF87E090E042
:104350000E94102E40E050E0BA0188E090E00E94F8
:10436000222E60E08DE090E00E94102E40E050E0B0
:10437000BA0188E190E00E94222E60E087E190E09F
:104380000E94102E0C9477210C947E21FC01329611
:1043900097E080E0915029F021912223D9F38F5F9B
:1043A000F9CF08959C01FC0132969FEF80E0419186
:1043B000461789F09F3F19F4411101C0982F8F5F74
:1043C0008630A9F79F3F39F0F901E90FF11D97FDFC
:1043D000FA956283089508959C012A5F3F4FFC017E
:1043E0004281461301C01282019682179307B9F7E2
:1043F00008950C94D2210C94EC21029626E0FC0145
:1044000011922A95E9F7089508950C9404220C94CA
:104410000422CF930E9407220E94DA0C0E940522F8
:10442000C0E08C2F0E943D0C892B29F4CF5FC53052
:10443000C1F780E001C081E0CF9108950C9404227F
:104440000C941E220E94202280916702843061F128
:1044500010921E0220E488E190E00FB6F894A8952F
:10446000809360000FBE2093600080E00E94A7064A
:1044700080E00E9475070E94202283B7817F8460BC
:1044800083BF83B7816083BF7894889583B78E7F1D
:1044900083BF0FB6F894A8958091600088618093DF
:1044A0006000109260000FBE08950C9404220E94D8
:1044B000031B0E9490240E9444150E9475070C94CF
:1044C00055221F920F920FB60F9211248F939F9334
:1044D000AF93BF9380911E02811113C080915C0243
:1044E00090915D02A0915E02B0915F024196A11D84
:1044F000B11D80935C0290935D02A0935E02B09325
:104500005F02BF91AF919F918F910F900FBE0F905F
:104510001F90189582E084BD93E095BD9AEF97BDFA
:1045200080936E0008952FB7F89480915C0290916B
:104530005D02A0915E02B0915F022FBF0895CF92FD
:10454000DF92EF92FF920F931F932FB7F894409151
:104550005C0250915D0260915E0270915F022FBF1C
:104560006A017B01EE24FF248C0120E030E0C016BC
:10457000D106E206F30610F4415051099A01281BB6
:10458000390BC9011F910F91FF90EF90DF90CF90F1
:10459000089578941F920F920FB60F9211248F9363
:1045A0009F93AF93BF9380915C0290915D02A09125
:1045B0005E02B0915F020196A11DB11D80935C0265
:1045C00090935D02A0935E02B0935F02BF91AF91A2
:1045D0009F918F910F900FBE0F901F90189581E0C3
:1045E0008093E00080E28093D8001092C9008FE1B0
:1045F0009EE40197F1F700C0000087E090EBDC013A
:104600008093700290937102A0937202B093730230
:104610009CE088E10FB6F894A895809360000FBEE7
:1046200090936000FFCFAF92BF92CF92DF92EF9254
:10463000FF920F931F93CF93C0E0CC24C394D12C4F
:10464000E82EF12C8C2F0E943D0C5C0100E010E064
:10465000C601002E02C0880F991F0A94E2F78A2132
:104660009B21892B31F40F5F1F4F0E30110581F70D
:104670000AC0602F7C2F80E00E949209E816F9069C
:1046800091F781E004C0CF5FC530E1F680E0CF91C3
:104690001F910F91FF90EF90DF90CF90BF90AF9060
:1046A0000895CF93C82F8CE20E941323882321F012
:1046B0008C2FCF910C94132380E0CF910895CF934A
:1046C0000E943721811102C00E94C42184E498E035
:1046D0000E946905C5E6C15049F00E94DA0C8FE3DB
:1046E0009CE90197F1F700C00000F5CF8DE398E059
:1046F0000E94690589E20E94512381110FC18AE25B
:104700000E94512381110E94C42185E00E945123FF
:1047100081110E94EF220E94422180931D0287E0B6
:104720000E9451238823A9F18BE10E945123882301
:1047300051F080911D0281FB222720F991E0922700
:1047400090FB81F90EC08EE00E945123882361F016
:1047500080911D0282FB222720F991E0922790FB95
:1047600082F980931D0215C080E10E94512390912F
:104770001D02882341F093FB222720F981E0822744
:1047800080FB93F904C0892F809580FB90F990936A
:104790001D0280911D020E9446210E94542190E03A
:1047A000909361028093600280EE0E9451238823DF
:1047B00041F080916002982F909590FB80F9809352
:1047C000600289E30E945123882359F0809160029E
:1047D00081FB222720F991E0922790FB81F98093B9
:1047E000600282EE0E945123882359F0809160027A
:1047F00082FB222720F991E0922790FB82F9809397
:10480000600286EE0E945123882359F08091600255
:1048100083FB222720F991E0922790FB83F9809374
:10482000600283EE0E945123882359F08091600238
:1048300084FB222720F991E0922790FB84F9809352
:10484000600285E30E945123882359F08091600221
:1048500085FB222720F991E0922790FB85F9809330
:10486000600281E30E945123882359F08091600205
:1048700086FB222720F991E0922790FB86F980930E
:10488000600281E10E945123882359F080916002E7
:1048900087FB222720F991E0922790FB87F98093EC
:1048A0006002809160020E94582187E20E94512399
:1048B000C82F8EE10E9451238111C2608FE10E94B6
:1048C00051238111C46080E20E9451238111C8608C
:1048D00081E20E9451238111C06182E20E94512332
:1048E0008111C06283E20E9451238111C06484E27D
:1048F0000E945123882311F0C06802C0CC2329F004
:104900008C2F0E944F216C2F03C00E944B21682FD7
:1049100070E080E090E0CF910C94931ECF910895C9
:104920000E943721811102C00E94C4210E945D2192
:1049300080936202282F269530E02430310524F040
:1049400081708660809362028091620280FF02C063
:10495000869501C080E00C94A70620916202822F08
:104960008695482F50E04330510544F48F5F982FCF
:10497000990F822F8170892B80936202809162024D
:104980008160809362020E94612180911D0280FFFC
:104990000FC08091620286951F928F9380EC98E001
:1049A0009F938F930E9402060F900F900F900F908D
:1049B0008091620286950C94A70680916202982FDE
:1049C000969591F09158990F8170892B809362028E
:1049D0008E7F91E009F490E08091620290FB80F973
:1049E000809362020E94612180911D0280FF0FC0AE
:1049F0008091620286951F928F9388EA98E09F9338
:104A00008F930E9402060F900F900F900F9080914D
:104A1000620286950C94A7068091620280FD1DC0FB
:104A2000816080936202813019F483E08093620296
:104A3000809162020E94612180911D0280FF08C066
:104A400080E898E09F938F930E9402060F900F904A
:104A50008091620286950C94A70608958091620267
:104A600080FF14C08E7F809362020E94612180913A
:104A70001D0280FF08C08DE698E09F938F930E94EF
:104A800002060F900F9080E00C94A7060895CF9334
:104A9000C0916202C17080911D0280FF0CC01F9204
:104AA000CF9382E998E09F938F930E9402060F9024
:104AB0000F900F900F90CC2319F0CF910C942E25CE
:104AC000CF910C940C2590916202892F86958F5F6F
:104AD0008F779170843028F4880F892B809362023D
:104AE00002C090936202809162028E7F91E009F48D
:104AF00090E08091620290FB80F9809362020E94B4
:104B0000612180911D0280FF0FC080916202869515
:104B10001F928F9389E598E09F938F930E940206DE
:104B20000F900F900F900F908091620286950C94D9
:104B3000A706843008F083E0880F9091620291709C
:104B4000892B809362028E7F91E009F490E080913E
:104B5000620290FB80F9809362020E946121809141
:104B6000620286950C94A70680916202869508954C
:104B700080912A02089508959FB7F8941092210217
:104B80009FBF90916702943009F057C09091E9005F
:104B90009F703091EC00232F217030FD20E8922B84
:104BA00023E02093E9002091EB0020FF43C02091F7
:104BB000EE0027FF3FC020911F02222321F0209109
:104BC000E80025FF37C010921F0226E03091E80070
:104BD00035FD15C030916702343061F53091EB003E
:104BE00035FD28C0215021F481E080931F0222C0AE
:104BF000EFE9FFE03197F1F700C00000E7CF8093C5
:104C0000F1008091E80085FD0AC08091E80080FFF6
:104C1000FCCF8091E8008E778093E80006C08FB7C4
:104C2000F89421E0209321028FBF9F709093E900B8
:104C300080E008959F709093E9008FEF08950F939F
:104C40001F93CF93DF9300D01F92CDB7DEB78C01B7
:104C50000E94AF28823011F0843021F584E08983EE
:104C60001B830A8382E08093E9008FEF9091E80034
:104C7000815095FD06C095ED9A95F1F700008111E0
:104C8000F5CF8091E80085FF0DC040E050E063E083
:104C900070E0CE0101960E94CC288091E8008E77CA
:104CA0008093E8000F900F900F90DF91CF911F91AC
:104CB0000F910895CF93DF9300D01F92CDB7DEB749
:104CC00020916702243031F523E02983805891092F
:104CD0009B838A8382E08093E9008FEF9091E800C4
:104CE000815095FD06C095ED9A95F1F70000811170
:104CF000F5CF8091E80085FF0DC040E050E063E013
:104D000070E0CE0101960E94CC288091E8008E7759
:104D10008093E8000F900F900F90DF91CF9108954E
:104D2000CF93DF93EC010E94AF28823011F08430E2
:104D300039F581E08093E9008FEF9091E800815090
:104D400095FD06C095ED9A95F1F700008111F5CF1C
:104D50008091E80085FF14C040E050E068E070E01A
:104D6000CE010E94CC288091E8008E778093E800E5
:104D700088E0FE01A2E2B2E001900D928A95E1F78F
:104D8000DF91CF9108958DEF98E00E9469058091A1
:104D90006602811109C00E945D2A0E94BA2A809190
:104DA000E20084608093E200089589EF98E00E9419
:104DB000690510926602089585EF98E00C946905E4
:104DC00081EF98E00C9469058DEE98E00E946905EA
:104DD0000C945722209120022F5F822F62E30E94C1
:104DE000792D992319F02093200208951092200222
:104DF00080912102882371F180916702843041F50E
:104E00008091E9008F702091EC00922F917020FD2D
:104E100090E8892B93E09093E9009091EB0090FF4C
:104E200014C09091EE0097FF10C09091E80095FF9C
:104E300003C01092F100F9CF9091E80090FF05C0F7
:104E40009091E8009E779093E8008F708093E9003E
:104E500010922102089542E061EC81E00E94D6297F
:104E600042E261EC82E00E94D62942E261EC83E0FA
:104E70000C94D62980916902833009F460C030F423
:104E8000813071F0823009F499C008958A3009F4B4
:104E900085C08B3009F46BC0893009F0A7C020C0F1
:104EA00080916802813A09F0A1C08091E800877F73
:104EB0008093E80080916C0290916D02892B21F41F
:104EC00068E082E292E003C060E080E090E070E0A1
:104ED0000E9417298091E8008B778093E80008955D
:104EE00080916802813209F081C080916C029091BA
:104EF0006D02029708F07AC08091E800877F809366
:104F0000E8008091E80082FD05C080916702811170
:104F1000F8CF6CC02091F3008091F20090E0922BCA
:104F2000029729F48091F1008B7F813021F48091E8
:104F3000F10080932A028091E8008B7753C0809122
:104F40006802813A09F052C080916C0290916D0222
:104F5000892B09F04BC08091E800877F8093E8009F
:104F60008091E80080FFFCCF80911B0136C08091CA
:104F700068028132D9F580916C0290916D02892B83
:104F8000A9F58091E800877F8093E8000E940B2AB2
:104F900080916A0280931B010C94031B809168022C
:104FA000813221F58091E800877F8093E8000E949C
:104FB0000B2A80916B0280932B02089580916802E6
:104FC000813AA1F48091E800877F8093E800809186
:104FD000E80080FFFCCF80912B028093F10080914C
:104FE000E8008E778093E8000C940B2A089584B72C
:104FF000877F84BF0FB6F894A89580916000886180
:1050000080936000109260000FBE80E88093610082
:10501000109261000E94D5150E945D2A0E94BA2A52
:105020008091E20084608093E2008CEB95E20E9424
:105030000D2178940E944E2D0E94DD1581E191E0B2
:105040000E943F158CED98E00E94690580916702EF
:10505000853089F488ED98E00E9469050E9422223B
:1050600080916502882391F30E940922882371F3BD
:105070000E94B628EBCF0E9411160E94C013E6CF03
:105080000C944228292F332723303105C9F060F4CE
:105090002130310581F02230310509F047C08BE520
:1050A00090E023E239E046C02132310511F122328D
:1050B000310561F13BC082E190E02EE739E03AC072
:1050C00099278130910561F040F08230910559F0C7
:1050D000039761F5E1E0F9E008C0EFE1F9E005C010
:1050E000E5E1F9E002C0E7E0F9E0849190E09F019A
:1050F00021C063307105D0F4660F771FFB01E35ABE
:10510000FE4F2081318189E090E014C06330710549
:1051100068F4FB01EE0FFF1FE95AFE4F2081318139
:10512000FB01EC5AFE4F808190E004C080E090E0EB
:1051300020E030E0FA013183208308950895CF9371
:10514000C82F0E949E28C0932C02CF910895809171
:105150006702843011F081E0089582E00895809123
:105160002C02811102C00C94A728089580E189BD0A
:1051700082E189BD09B400FEFDCF8091D8008F7D0A
:105180008093D8008091E00082608093E00080915D
:10519000E00081FDFCCF0895CF92DF92EF92FF9265
:1051A0000F931F93CF93DF93EC018B017A010E9441
:1051B0002A2A811133C0E114F10439F0F70180810A
:1051C0009181081B190BC80FD91FC12CD12C0115B7
:1051D000110519F18091E80085FD16C08091E80065
:1051E0008E778093E800E114F10449F0F7018081A3
:1051F0009181C80ED91ED182C08285E00FC00E9465
:105200002A2A882321F30AC089918093F100015052
:105210001109FFEFCF1ADF0ADACF80E0DF91CF91DB
:105220001F910F91FF90EF90DF90CF900895209104
:105230006E0230916F022617370748F0611571052D
:1052400039F42091E8002E772093E80001C0B901DD
:10525000FC0120E06115710579F1809167028823D6
:10526000F1F18530F1F18091E80083FD3CC080913F
:10527000E80082FD2EC08091E80080FFEBCF2091F6
:10528000F3008091F20090E0922B6115710551F0CE
:105290008830910538F421912093F1006150710913
:1052A0000196F3CF21E0089709F020E08091E80013
:1052B0008E778093E800CECF2111CFCF0AC08091A6
:1052C0006702882361F0853061F08091E80083FDFA
:1052D0000AC08091E80082FFF2CF80E0089582E06A
:1052E000089583E0089581E0089520916E02309141
:1052F0006F022617370748F06115710539F42091C0
:10530000E8002E772093E80001C0B901FC0120E0FD
:105310006115710591F180916702882309F440C0FD
:10532000853009F43FC08091E80083FD3DC0809145
:10533000E80082FD2FC08091E80080FFE9CF209136
:10534000F3008091F20090E0922B6115710559F005
:105350008830910540F424912093F10031966150FA
:1053600071090196F2CF21E0089709F020E08091C1
:10537000E8008E778093E800CBCF2111CCCF0AC014
:1053800080916702882361F0853061F08091E800A8
:1053900083FD0AC08091E80082FFF2CF80E008958B
:1053A00082E0089583E0089581E00895982F973072
:1053B00068F59093E900981739F07091EC0020910E
:1053C000ED005091F00003C0242F762F50E021FD16
:1053D00002C09F5FECCF3091EB003E7F3093EB003B
:1053E0003091ED003D7F3093ED003091EB00316066
:1053F0003093EB007093EC002093ED005093F0009D
:105400002091EE0027FDE5CF80E008958F70809316
:10541000E90081E008958091680287FF11C08091C2
:10542000E80082FD05C0809167028111F8CF11C0AC
:105430008091E8008B770BC080916702882349F048
:105440008091E80080FFF8CF8091E8008E7780930C
:10545000E80008952091E4003091E50095E6409140
:10546000EC00842F817040FF23C08091E80080FD14
:105470001DC080916702882399F0853099F0809152
:10548000EB0085FD11C04091E4005091E500241728
:10549000350729F3915011F09A01E1CF84E0089586
:1054A00082E0089583E0089581E0089580E0089502
:1054B0004091E80042FFDDCF08950E94CB2A0E9470
:1054C000D32AE0EEF0E0808181608083E8EDF0E0B7
:1054D00080818F77808319BCA7EDB0E08C918E7F9F
:1054E0008C9380818F7E80831092660208950F9343
:1054F0001F93CF93DF930E94CB2A0E94D32AC8ED3B
:10550000D0E088818F7788838881806888838881CC
:105510008F7D888319BC10926702109263021092EB
:1055200065021092640200EE10E0F80180818B7F2A
:10553000808388818160888342E060E080E00E940F
:10554000D629E1EEF0E080818E7F8083E2EEF0E00C
:10555000808181608083808188608083F801808180
:105560008E7F8083888180618883DF91CF911F91B6
:105570000F910895E8EDF0E080818F7E8083E7ED64
:10558000F0E080818160808384E082BF81E080934D
:1055900066020C94772AE8EDF0E080818E7F8083AC
:1055A0001092E20008951092DA001092E10008953E
:1055B0001F920F920FB60F9211242F933F934F9388
:1055C0005F936F937F938F939F93AF93BF93EF936B
:1055D000FF938091E10082FF0BC08091E20082FF87
:1055E00007C08091E1008B7F8093E1000E94EA2652
:1055F0008091DA0080FF1FC08091D80080FF1BC01F
:105600008091DA008E7F8093DA008091D90080FF4C
:105610000DC080E189BD82E189BD09B400FEFDCFE6
:1056200081E0809367020E94C32605C019BC1092D6
:1056300067020E94D5268091E10080FF19C0809109
:10564000E20080FF15C08091E2008E7F8093E2002F
:105650008091E20080618093E2008091D8008062B6
:105660008093D80019BC85E0809367020E94E026F1
:105670008091E10084FF30C08091E20084FF2CC063
:1056800080E189BD82E189BD09B400FEFDCF809132
:10569000D8008F7D8093D8008091E1008F7E809329
:1056A000E1008091E2008F7E8093E2008091E20031
:1056B00081608093E20080916302882311F084E08E
:1056C00007C08091E30087FD02C081E001C083E054
:1056D000809367020E94E4268091E10083FF29C045
:1056E0008091E20083FF25C08091E100877F809355
:1056F000E10082E080936702109263028091E100F2
:105700008E7F8093E1008091E2008E7F8093E200A3
:105710008091E20080618093E20042E060E080E0FE
:105720000E94D6298091F00088608093F0000E944A
:10573000DC26FF91EF91BF91AF919F918F917F9167
:105740006F915F914F913F912F910F900FBE0F90EE
:105750001F9018951F920F920FB60F9211242F933E
:105760003F934F935F936F937F938F939F93AF93E9
:10577000BF93CF93DF93EF93FF93C091E900CF7076
:105780008091EC00D82FD17080FDD0E81092E90014
:105790008091F000877F8093F00078940E94EE2B38
:1057A0001092E9008091F00088608093F000CD2B8A
:1057B000CF70C093E900FF91EF91DF91CF91BF913E
:1057C000AF919F918F917F916F915F914F913F9199
:1057D0002F910F900FBE0F901F9018951F93CF938E
:1057E000DF93CDB7DEB7AA970FB6F894DEBF0FBE32
:1057F000CDBFE8E6F2E08091F100819322E0E0374E
:10580000F207C9F70E943A278091E80083FF2EC172
:105810008091680290916902492F50E04A30510509
:1058200008F024C1FA01E756FF4F0C94CF2D8038C1
:1058300021F0823809F01AC108C080916402909169
:105840006502992389F082600FC080916C028F708D
:10585000873008F00BC18093E9008091EB0085FB55
:10586000882780F91092E9009091E800977F909343
:10587000E8008093F1001092F100D1C0282F2D7F15
:1058800009F0F4C0882319F0823061F0EFC08091F4
:105890006A02813009F0EAC0933009F080E0809319
:1058A00065022EC080916A0281112AC080916C022B
:1058B0008F702FEF280F263008F0D8C08093E900B2
:1058C0002091EB0020FF1CC0933021F48091EB006D
:1058D000806214C09091EB0090619093EB0021E006
:1058E00030E0A90102C0440F551F8A95E2F74093AA
:1058F000EA001092EA008091EB0088608093EB0050
:105900001092E9008091E800877F8093E8000E9470
:105910000B2AACC08111AAC010916A021F77809136
:10592000E3008078812B8093E3008091E800877FFB
:105930008093E8000E940B2A8091E80080FFFCCF52
:105940008091E30080688093E300111102C082E03F
:1059500001C083E08093670289C08058823008F0DC
:1059600085C080916A0290916B028C3D53E095074F
:1059700079F583E08A838AE289834FB7F894DE0160
:10598000139620E03EE051E2E32FF0E05093570001
:10599000E49120FF03C0E295EF703F5FEF708E2F20
:1059A00090E0EA3010F0C79601C0C0968D939D93A9
:1059B0002F5F243149F74FBF8091E800877F8093A4
:1059C000E8006AE270E0CE0101960E94172916C035
:1059D00060916C0270916D02AE014F5F5F4F0E944B
:1059E0004028BC01892B09F441C09091E800977FC1
:1059F0009093E80089819A810E9475298091E8003E
:105A00008B778093E80032C0803881F58091E80080
:105A1000877F8093E800809163028093F1008091FA
:105A2000E8008E7772CF811121C080916A02909137
:105A30006B0299270297D4F48091E800877F8093C6
:105A4000E80080916A02809363020E940B2A809191
:105A50006302811106C08091E30087FD02C081E0EE
:105A600001C084E0809367020E942B278091E800A8
:105A700083FF0AC08091E800877F8093E8008091CF
:105A8000EB0080628093EB00AA960FB6F894DEBF1D
:105A90000FBECDBFDF91CF911F910895CF9380911D
:105AA00067028823A1F0C091E900CF709091EC00CB
:105AB000892F817090FD80E8C82B1092E9008091B9
:105AC000E80083FD0E94EE2BCF70C093E900CF91D8
:105AD0000895DB018F939F930E94E42DBF91AF91B6
